:020000040040BA
:10000000F0244020C90B4000790C4000790C4000DE
:10001000790C4000790C4000790C40000000000091
:10002000000000000000000000000000790C40000B
:10003000790C400000000000790C4000790C400071
:10004000790C4000790C4000790C4000790C40009C
:10005000790C4000790C4000790C4000790C40008C
:10006000790C400000000000810740009907400023
:10007000B1074000790C4000790C4000790C400039
:10008000C9074000E1074000790C4000790C4000AE
:10009000790C4000790C4000790C4000790C40004C
:1000A000790C4000790C4000790C4000790C40003C
:1000B000790C4000790C4000790C4000790C40002C
:1000C000790C4000790C4000790C4000790C40001C
:1000D00000000000790C400000000000790C400096
:1000E000790C4000790C4000790C4000790C4000FC
:1000F000790C4000790C4000790C4000790C4000EC
:10010000790C4000790C4000790C4000790C4000DB
:10011000790C40000000000000000000000000001A
:10012000790C4000790C4000790C4000790C4000BB
:10013000790C400000000000790C4000790C400070
:1001400010B5054C237833B9044B13B10448AFF311
:1001500000800123237010BD3C04402000000000FB
:10016000DC1540000C4B43B10C480D4910B5AFF302
:1001700000800C48036823B910BD0A48036833B9EE
:100180007047094B002BF7D0BDE810401847064BCD
:10019000002BF5D0184700BF00000000DC15400020
:1001A00040044020DC1540000000000080B582B013
:1001B00000AF78607B68072B31D801A252F823F09A
:1001C0001D024000E1014000E9014000F101400052
:1001D000F901400001024000090240001302400002
:1001E0000020114B98471AE001200F4B984716E06A
:1001F00000200E4B984712E010200C4B98470EE061
:1002000020200A4B98470AE03E210020084B9847DF
:1002100005E03E210120064B984700E000BF00BFEB
:100220000837BD4680BD00BFF908400065094000A1
:10023000D509400080B582B000AF78607B68072B9D
:1002400026D801A252F823F0690240006D02400056
:100250006D0240007F0240007F0240007F024000AC
:100260007F0240007F024000012312E00B4B9847C1
:100270000346002B14BF01230023DBB209E0084B27
:1002800098470346002B14BF01230023DBB200E094
:10029000002318460837BD4680BD00BF3109400025
:1002A0004D0A400080B483B000AF78607B68072BB4
:1002B00025D801A252F823F0D9024000DF02400005
:1002C000E5024000EB024000EF024000F302400074
:1002D000F7024000FB0240004FF4FA4310E04FF4F5
:1002E00000430DE04FF400430AE0084B08E0084BE0
:1002F00006E0084B04E0074B02E0064B00E0002359
:1003000018460C37BD465DF8047B704700093D0078
:1003100000127A00001BB70080B582B000AF034620
:10032000FB7100BFFB791846054B9847034683F0E5
:100330000103DBB2002BF5D100BF0837BD4680BDFD
:100340003502400080B586B000AFF8607A603B604F
:100350000B46FB727B68002B07D13B68002B04D156
:10036000FB684FF470021A6019E0FB7A18460E4BD6
:10037000984702467B68B2FBF3F37B617B693A687E
:1003800002FB03F37B613B68013B1A04074B1340FC
:100390007A68D2B2134343F47C52FB681A6000BF00
:1003A0001837BD4680BD00BFA50240000000FF0712
:1003B00080B582B000AF786039603B68002B08D10F
:1003C000094B9847094A7B681B6843F000539362C6
:1003D00005E0064A7B681B6843F48033D36100BFA5
:1003E0000837BD4680BD00BF690A400000060E40C8
:1003F00080B582B000AF78607B68002B03D1054BDD
:100400009847034602E0044B9847034618460837CE
:10041000BD4680BD850A4000A10A400080B582B07B
:1004200000AF0346FB71FB79033B042B08D8FB7933
:100430001846064B9847FB791846054B984700E04D
:1004400000BF00BF0837BD4680BD00BFAD01400002
:100450001903400080B582B000AF786000BF7868B3
:10046000044B98470346002BF9D000231846083761
:10047000BD4680BDF103400080B500AF0620054BAE
:100480009847024613469B0013449A0013441846AB
:1004900080BD00BFA502400080B500AF024B984769
:1004A0000346184680BD00BF7904400090B583B074
:1004B00000AF1348134B98470620134B9847381D3D
:1004C000192301220621114CA0473B1D002118468B
:1004D0000F4B984700200F4B984702200E4B984730
:1004E00000200E4B98470E4B98470E4B98470346FB
:1004F0001846044B984700BF0C37BD4690BD00BF5F
:1005000000A3E111E90D40001D0440004503400037
:10051000B103400055044000F90740007508400051
:10052000810C40009904400080B485B000AFF860B1
:10053000B9607A607B68002B03D0FB68BA685A66A2
:1005400002E0FB68BA681A6600BF1437BD465DF862
:10055000047B704780B487B000AFF860B9607A6000
:10056000BB68B3F1405F03D0BB68B3F1605F03D1F8
:10057000FB689B6B7B6102E0FB68DB6B7B617A69EC
:100580007B681340002B01D1002300E001231846B3
:100590001C37BD465DF8047B7047000080B584B011
:1005A00000AFF860B9607A60B968F868194B98478D
:1005B0007B6803F001031A46B968F868164B984740
:1005C0007B6803F00A03002B03D0FB68BA681A6249
:1005D00002E0FB68BA685A627B6803F00203002BF2
:1005E00004D0FB68BA68C3F8802008E07B6803F099
:1005F0000803002B03D0FB68BA68C3F88420FB68AB
:10060000BA685A61FB68BA681A6000BF1037BD4605
:1006100080BD00BF810640002905400080B584B040
:1006200000AFF860B9607A603B60B968F868124B57
:100630009847BA69B968F868104B98473B68002B2F
:1006400003D0FB68BA681A6502E0FB68BA685A65AD
:100650007B68002B03D0FB68BA681A6302E0FB6872
:10066000BA685A63FB68BA681A61FB68BA681A60AC
:1006700000BF1037BD4680BD8106400029054000FF
:1006800080B483B000AF786039607B683A685A64A0
:1006900000BF0C37BD465DF8047B704780B483B063
:1006A00000AF78607B68DB6C18460C37BD465DF8A0
:1006B000047B704780B483B000AF78607B689B6C2C
:1006C00018460C37BD465DF8047B704780B584B092
:1006D00000AF786039607868264B9847F860786892
:1006E000254B98470246FB681340FB60FB68002BD4
:1006F0003CD00023BB6034E0204ABB681B0113449C
:100700001A683B689A4226D11C4ABB681B011344F5
:1007100004331A68FB681340002B1CD0174ABB68CF
:100720001B0113440C331B681449BA6812010A44B4
:1007300010681249BA6812010A440432126811465C
:1007400098470E4ABB681B01134404331B68DB4304
:10075000FA681340FB60BB680133BB60BB68062BC3
:1007600003D8FB68002BC7D100E000BF00BF1037E3
:10077000BD4680BD9D064000B5064000580440209F
:1007800080B500AF0A210248024B984700BF80BDE8
:10079000000E0E40CD06400080B500AF0B21024890
:1007A000024B984700BF80BD00100E40CD064000B0
:1007B00080B500AF0C210248024B984700BF80BDB6
:1007C00000120E40CD06400080B500AF1021024857
:1007D000024B984700BF80BD00140E40CD0640007C
:1007E00080B500AF11210248024B984700BF80BD81
:1007F00000160E40CD06400080B483B000AF786094
:100800007B68013B032B1AD801A252F823F000BFEA
:1008100021084000270840002F084000370840000A
:1008200000237B600EE04FF480737B600AE04FF49E
:1008300040737B6006E04FF400737B6002E00023AE
:100840007B6000BF0A490A4B1B6B23F440727B6834
:1008500013430B6300BF064B9B6E03F00803002B92
:10086000F9D000BF0C37BD465DF8047B704700BF70
:1008700000060E4080B485B000AF78601D491D4B66
:100880001B6B23F070027B6813430B634FF48053A0
:10089000FB6007E0FB68002B01D1012323E0FB682C
:1008A000013BFB60134B9B6E03F00803002BF1D060
:1008B000104A104B1B6B23F0030343F00203136336
:1008C0004FF48053FB6007E0FB68002B01D101234C
:1008D00009E0FB68013BFB60064B9B6E03F00803DD
:1008E000002BF1D0002318461437BD465DF8047B79
:1008F000704700BF00060E4080B483B000AF786040
:100900007B68012B05D10749064B9A68064B1343B8
:100910008B60044B054A1A6000BF0C37BD465DF87A
:10092000047B704710180E40000010A5080000A5B9
:1009300080B400AF094B5B6903F08003002B07D044
:10094000074B9B6E03F08003002B01D0012300E0D6
:1009500000231846BD465DF8047B704710180E4012
:1009600000060E4080B483B000AF78601549154B87
:100970001A6A154B13430B6200BF124B9B6E03F4B4
:100980000033002BF9D00F490E4B1A6A0F4B13405E
:100990007A68134343F45C130B6200BF094B9B6EF0
:1009A00003F40033002BF9D00649064B1A6A084BB2
:1009B000134043F45C130B6200BF0C37BD465DF877
:1009C000047B704700060E40080037008FFFC8FF09
:1009D000FFFFC8FE80B483B000AF786039607B68E9
:1009E000002B08D01349134B1B6A134A1A40134BB0
:1009F00013430B6218E00F490E4B1A6A104B134059
:100A00003A68120292B21A430E4B13430B6200BFB4
:100A1000084B9B6E03F00103002BF9D00549054BF1
:100A20001A6A094B13430B6200BF0C37BD465DF8D1
:100A3000047B704700060E40FCFFC8FE0200370131
:100A4000FCFFC8FF010037000000370180B400AF91
:100A5000044B9B6E03F480331846BD465DF8047B5F
:100A6000704700BF00060E4080B400AF044B4FF04B
:100A700000529A6200BFBD465DF8047B704700BF1C
:100A800000060E4080B400AF044B9B6E03F00203DF
:100A90001846BD465DF8047B704700BF00060E4057
:100AA00080B400AF044B9B6E03F040031846BD4674
:100AB0005DF8047B704700BF00060E4080B483B031
:100AC00000AF78607B683F2B01D901232FE07B6862
:100AD0001F2B13D8194B9A6901217B6801FA03F384
:100AE0001A4001217B6801FA03F39A421ED0134A8F
:100AF00001217B6801FA03F3136117E07B68203B57
:100B00007B600E4BD3F8082101217B6801FA03F3C7
:100B10001A4001217B6801FA03F39A4206D0074A82
:100B200001217B6801FA03F3C2F800310023184663
:100B30000C37BD465DF8047B704700BF00060E40D1
:100B400080B483B000AFEFF310837B607B68002B31
:100B50000CBF01230023DBB23B6072B6BFF35F8F93
:100B6000044B00221A703B6818460C37BD465DF8EE
:100B7000047B70470A00402080B483B000AF7860E7
:100B80007B68002B14BF01230023DBB218460C370F
:100B9000BD465DF8047B704780B582B000AF7860D9
:100BA0007868074B98470346002B05D0054B012278
:100BB0001A70BFF35F8F62B600BF0837BD4680BDB5
:100BC000790B40000A00402080B584B000AF1E4B76
:100BD000FB601E4BBB60FA68BB689A420CD007E012
:100BE000BB681A1DBA60FA68111DF96012681A60B4
:100BF000BB68174A9342F3D3164BBB6004E0BB6853
:100C00001A1DBA6000221A60BB68134A9342F6D3D9
:100C1000124BFB60124AFB6823F07F039360114B79
:100C200098477860104A104B1B6843F470031360B8
:100C3000BFF34F8FBFF36F8F78680C4B98470C4B07
:100C400098470C4B9847FEE7DC1540000000402019
:100C50003C0440203C044020EC04402000004000C4
:100C600000ED00E0410B400088ED00E0990B4000F2
:100C70003D144000D10F400080B400AFFEE70000FB
:100C800080B400AF524B1B6B03F00303012B14D055
:100C9000012B02D3022B38D07AE04E4B5B6903F074
:100CA0008003002B04D04C4B4FF400421A606FE0DD
:100CB000494B4FF4FA421A606AE0454B1B6A03F055
:100CC0008073002B03D0444B444A1A6060E0424BCF
:100CD000434A1A603E4B1B6A03F07003102B04D08A
:100CE000202B08D0002B0ED00EE03B4B1B685B0086
:100CF000394A136008E0384B1A6813465B00134406
:100D0000354A136000E000BF42E0314B1B6A03F03C
:100D10008073002B03D0304B304A1A601CE02E4BFE
:100D20002F4A1A602A4B1B6A03F07003102B04D061
:100D3000202B08D0002B0ED00EE0274B1B685B0049
:100D4000254A136008E0244B1A6813465B001344DD
:100D5000214A136000E000BF1D4B1B6B03F003032F
:100D6000022B14D11A4B9B6A1B0CC3F30A030133E9
:100D7000194A126802FB03F3174A1360144B9B6A6B
:100D8000DBB2154A1268B2FBF3F3134A136000BFDB
:100D90000F4B1B6B03F07003702B08D10E4B1B68BD
:100DA000104AA2FB03235B080B4A13600AE0084BBE
:100DB0001B6B1B0903F00703074A126822FA03F3AF
:100DC000054A136000BFBD465DF8047B704700BF55
:100DD00000060E4010180E400C004020001BB7000B
:100DE00000093D00ABAAAAAA80B483B000AF786026
:100DF0007B68194A934204D8184B4FF080621A60FE
:100E000023E07B68164A934203D8144B154A1A60B4
:100E10001BE07B68144A934203D8104B134A1A60B4
:100E200013E07B68124A934203D80C4B114A1A60B4
:100E30000BE07B68104A934204D8084B4FF0042221
:100E40001A6002E0054B0D4A1A6000BF0C37BD4620
:100E50005DF8047B704700BFFF2C3101000C0E4091
:100E6000FF59620200010004FF86930300020004A0
:100E7000FFB3C40400030004FFE0F505000500040F
:100E800080B483B000AF78607B68072B25D801A2BF
:100E900052F823F0B50E4000BB0E4000C10E4000DA
:100EA000C70E4000CB0E4000CF0E4000D30E4000D6
:100EB000D70E40004FF4FA4310E04FF400430DE02A
:100EC0004FF400430AE0084B08E0084B06E0084BEB
:100ED00004E0074B02E0064B00E0002318460C3705
:100EE000BD465DF8047B704700093D0000127A00A2
:100EF000001BB70080B500AF0620054B984702469F
:100F000013469B0013449A001344184680BD00BF4B
:100F1000810E400080B500AF024B9847034618464B
:100F200080BD00BFF50E400080B483B000AF786094
:100F300039607B683A681A6300BF0C37BD465DF8BC
:100F4000047B704780B483B000AF786039607B6801
:100F50003A685A6300BF0C37BD465DF8047B7047A2
:100F600090B583B002AF124B9847124B4FF400423A
:100F70005A600C20104B9847002300930023002256
:100F80004FF480710D480E4CA0470A200A4B984739
:100F900000224FF400610B480B4B984701224FF49D
:100FA00000610848094B984700BF0437BD4690BD13
:100FB000AD04400050180E40BD0A400000120E4023
:100FC0001D064000000E0E409D0540002905400012
:100FD0002DE9F04F8BB000AF4B4B98474FF4807129
:100FE0004A484B4B98474B4B9847034619464FF09E
:100FF00000020B4614466001F861F86940EAD360CC
:10100000F8615B01BB61D7E906345B1A64EB02044B
:10101000A0007861786940EA937078619B003B6139
:10102000D7E904345B1844EB02044FEA840949EA27
:1010300093794FEA830843464C461946224641F2CB
:101040002B734FF00004CD1842EB040628463146BE
:10105000314C41F22C724FF00003A04703460C467E
:1010600018462E4B98474FF4807128482C4B9847D0
:10107000284B9847034619464FF000020B4614468A
:101080006001F860F86840EAD360F8605B01BB601B
:10109000D7E902345B1A64EB02044FEA840B4BEA93
:1010A000937B4FEA830A53465C465B1844EB020489
:1010B000A2007A607A6842EA93727A609B003B6091
:1010C000D7E900341946224641F22B734FF0000451
:1010D000CD1842EB0406284631460F4C41F22C72E3
:1010E0004FF00003A04703460C4618460B4B9847A9
:1010F0004FF400624FF020510A480B4B98470346CB
:1011000087F827306AE700BF610F400000120E40E9
:10111000290F4000150F40002D1140000100402014
:10112000450F4000000E0E405505400053B94AB926
:10113000002908BF00281CBF4FF0FF314FF0FF30DF
:1011400000F07AB9ADF1080C6DE904CE00F006F8B4
:10115000DDF804E0DDE9022304B070472DE9F04733
:101160008C460D460446089E002B51D18A421746F4
:101170006DD9B2FA82FEBEF1000F0BD0CEF1200C79
:1011800001FA0EF520FA0CFC02FA0EF74CEA050CF7
:1011900000FA0EF44FEA174A250CBCFBFAF81FFAC6
:1011A00087F90AFB18CC45EA0C4508FB09F3AB426A
:1011B0000AD9ED1908F1FF3280F02381AB4240F2E9
:1011C0002081A8F102083D44ED1AA4B2B5FBFAF063
:1011D0000AFB105544EA054400FB09F9A14509D969
:1011E000E41900F1FF3380F00A81A14540F2078144
:1011F00002383C44A4EB090440EA08400021002ED8
:1012000061D024FA0EF4002334607360BDE8F087E7
:101210008B4207D9002E54D0002186E821000846D1
:10122000BDE8F087B3FA83F1002940F08E80AB422D
:1012300002D3824200F2FA80841A65EB0305012092
:10124000AC46002E3FD086E81010BDE8F08712B9FA
:101250000127B7FBF2F7B7FA87FEBEF1000F34D1D2
:10126000EB1B3A0C1FFA87FC0121B3FBF2F8250CAB
:1012700002FB183345EA03450CFB08F3AB4207D9E0
:10128000ED1908F1FF3002D2AB4200F2D180804666
:10129000ED1AA3B2B5FBF2F002FB105543EA054488
:1012A0000CFB00FCA44507D9E41900F1FF3302D27E
:1012B000A44500F2B8801846A4EB0C0440EA0840AC
:1012C0009DE731463046BDE8F087CEF1200405FAAF
:1012D0000EF307FA0EF720FA04F83A0C25FA04F494
:1012E00048EA0308B4FBF2F14FEA184502FB114447
:1012F0001FFA87FC45EA044501FB0CF3AB4200FAF8
:101300000EF409D9ED1901F1FF3080F08A80AB426B
:1013100040F2878002393D44EB1A1FFA88F5B3FB8F
:10132000F2F002FB103345EA034500FB0CF3AB423D
:1013300007D9ED1900F1FF386FD2AB426DD90238F1
:101340003D44EB1A40EA01418FE7C1F1200722FA40
:1013500007F88B4005FA01F448EA030320FA07FE78
:101360004FEA134CFD404EEA040EB5FBFCF94FEA80
:101370001E440CFB19551FFA83F844EA054509FB86
:1013800008F4AC4202FA01F200FA01FA08D9ED18A9
:1013900009F1FF3043D2AC4241D9A9F102091D4401
:1013A0002D1B1FFA8EFEB5FBFCF00CFB10554EEA10
:1013B000054400FB08F8A04507D9E41800F1FF3503
:1013C00029D2A04527D902381C4440EA0940A4EBA1
:1013D0000804A0FB02894C45C6464D4615D312D0E1
:1013E00056B1BAEB0E0364EB050404FA07F7CB40E1
:1013F0001F43CC40376074600021BDE8F087184679
:10140000F8E69046E0E6C245EAD2B8EB020E69EB98
:1014100003050138E4E72846D7E7404691E78146CF
:10142000BEE7014678E702383C4445E7084608E74E
:10143000A8F102083D442BE7704700BF70B50F4E7E
:101440000F4D761BB61018BF002405D0013455F897
:10145000043B9847A642F9D10A4E0B4D761B00F08B
:10146000A7F8B61018BF002406D0013455F8043B85
:101470009847A642F9D170BD70BD00BFBC154000B1
:10148000BC154000C4154000BC154000024B13B110
:10149000024800F005B8704700000000AD1440009D
:1014A000002301461A46184600F01EB838B50A4C0B
:1014B0000A4D641BA4100AD004F18043013B05EBE4
:1014C0008305013C55F804399847002CF9D1BDE853
:1014D000384000F077B800BFD4154000D015400068
:1014E000704700BF704700BF2DE9F8432C4D0646FA
:1014F000286898460F469146FFF7F2FF294B1C6873
:10150000D4F84831002B3ED05A681F2A1CDC02F167
:10151000010E76B103EB82010124C1F88890D3F863
:10152000880194402043022EC3F88801C1F8088145
:1015300023D00232C3F804E0286843F82270FFF792
:10154000D1FF0020BDE8F883174B0BB34FF4C870F0
:10155000AFF300800346D8B1D4F8482102600021DF
:1015600041600A46C4F848014FF0010EC0F88811E6
:10157000C0F88C11002EDCD0CCE7D3F88C110C43D2
:10158000C3F88C41D5E704F5A673C4F84831BBE72E
:101590002868FFF7A7FF4FF0FF30BDE8F88300BFD2
:1015A00038044020AC15400000000000100040202E
:1015B000F8B500BFF8BC08BC9E4670478D144000CB
:1015C00065014000F8B500BFF8BC08BC9E467047F6
:0415D0004101400095
:0815D40088FBFF7F010000000D
:1015DC00BFF35F8F0138FBD17047010000093D005C
:1015EC0000000000FC02402064034020CC0340209B
:1015FC0000000000000000000000000000000000DF
:10160C0000000000000000000000000000000000CE
:10161C0000000000000000000000000000000000BE
:10162C0000000000000000000000000000000000AE
:10163C00000000000000000000000000000000009E
:10164C00000000000000000000000000000000008E
:10165C00000000000000000000000000000000007E
:10166C00000000000000000000000000000000006E
:10167C00000000000000000000000000000000005E
:10168C00000000000000000001000000000000004D
:10169C000E33CDAB34126DE6ECDE05000B00000012
:1016AC00000000000000000000000000000000002E
:1016BC00000000000000000000000000000000001E
:1016CC00000000000000000000000000000000000E
:1016DC0000000000000000000000000000000000FE
:0C1A0C000000000000000000C8044020A2
:0400000500400BC9E3
:00000001FF
